{
  "_format": "hh-sol-artifact-1",
  "contractName": "Sample_2026_01_03",
  "sourceName": "contracts/Sample_2026-01-03.sol",
  "abi": [
    {
      "inputs": [],
      "name": "ping",
      "outputs": [
        {
          "internalType": "string",
          "name": "",
          "type": "string"
        }
      ],
      "stateMutability": "pure",
      "type": "function"
    }
  ],
  "bytecode": "0x608060405234801561001057600080fd5b50610173806100206000396000f3fe608060405234801561001057600080fd5b506004361061002b5760003560e01c80635c36b18614610030575b600080fd5b61003861004e565b604051610045919061011b565b60405180910390f35b60606040518060400160405280601581526020017f68656c6c6f2066726f6d20323032362d30312d30330000000000000000000000815250905090565b600081519050919050565b600082825260208201905092915050565b60005b838110156100c55780820151818401526020810190506100aa565b60008484015250505050565b6000601f19601f8301169050919050565b60006100ed8261008b565b6100f78185610096565b93506101078185602086016100a7565b610110816100d1565b840191505092915050565b6000602082019050818103600083015261013581846100e2565b90509291505056fea264697066735822122045f35f2ef5efb864f1da2d567e90f10287e3a780162a26b5af62bf6e80c1930a64736f6c63430008140033",
  "linkReferences": {},
  "deployedLinkReferences": {}
}