{
  "_format": "hh-sol-artifact-1",
  "contractName": "Sample_2026_01_18_13_59",
  "sourceName": "contracts/Sample_2026_01_18_13_59.sol",
  "abi": [
    {
      "inputs": [],
      "stateMutability": "nonpayable",
      "type": "constructor"
    },
    {
      "inputs": [],
      "name": "counter",
      "outputs": [
        {
          "internalType": "uint256",
          "name": "",
          "type": "uint256"
        }
      ],
      "stateMutability": "view",
      "type": "function"
    },
    {
      "inputs": [],
      "name": "getInfo",
      "outputs": [
        {
          "internalType": "uint256",
          "name": "",
          "type": "uint256"
        },
        {
          "internalType": "string",
          "name": "",
          "type": "string"
        }
      ],
      "stateMutability": "view",
      "type": "function"
    },
    {
      "inputs": [],
      "name": "increment",
      "outputs": [],
      "stateMutability": "nonpayable",
      "type": "function"
    },
    {
      "inputs": [],
      "name": "message",
      "outputs": [
        {
          "internalType": "string",
          "name": "",
          "type": "string"
        }
      ],
      "stateMutability": "view",
      "type": "function"
    },
    {
      "inputs": [
        {
          "internalType": "string",
          "name": "_msg",
          "type": "string"
        }
      ],
      "name": "setMessage",
      "outputs": [],
      "stateMutability": "nonpayable",
      "type": "function"
    }
  ],
  "bytecode": "0x60806040523480156200001157600080fd5b506040518060400160405280601c81526020017f4465706c6f79656420617420323032362d30312d31382d31332d35390000000081525060019081620000589190620002d9565b50620003c0565b600081519050919050565b7f4e487b7100000000000000000000000000000000000000000000000000000000600052604160045260246000fd5b7f4e487b7100000000000000000000000000000000000000000000000000000000600052602260045260246000fd5b60006002820490506001821680620000e157607f821691505b602082108103620000f757620000f662000099565b5b50919050565b60008190508160005260206000209050919050565b60006020601f8301049050919050565b600082821b905092915050565b600060088302620001617fffffffffffffffffffffffffffffffffffffffffffffffffffffffffffffffff8262000122565b6200016d868362000122565b95508019841693508086168417925050509392505050565b6000819050919050565b6000819050919050565b6000620001ba620001b4620001ae8462000185565b6200018f565b62000185565b9050919050565b6000819050919050565b620001d68362000199565b620001ee620001e582620001c1565b8484546200012f565b825550505050565b600090565b62000205620001f6565b62000212818484620001cb565b505050565b5b818110156200023a576200022e600082620001fb565b60018101905062000218565b5050565b601f82111562000289576200025381620000fd565b6200025e8462000112565b810160208510156200026e578190505b620002866200027d8562000112565b83018262000217565b50505b505050565b600082821c905092915050565b6000620002ae600019846008026200028e565b1980831691505092915050565b6000620002c983836200029b565b9150826002028217905092915050565b620002e4826200005f565b67ffffffffffffffff8111156200030057620002ff6200006a565b5b6200030c8254620000c8565b620003198282856200023e565b600060209050601f8311600181146200035157600084156200033c578287015190505b620003488582620002bb565b865550620003b8565b601f1984166200036186620000fd565b60005b828110156200038b5784890151825560018201915060208501945060208101905062000364565b86831015620003ab5784890151620003a7601f8916826200029b565b8355505b6001600288020188555050505b505050505050565b61086d80620003d06000396000f3fe608060405234801561001057600080fd5b50600436106100575760003560e01c8063368b87721461005c5780635a9b0b891461007857806361bc221a14610097578063d09de08a146100b5578063e21f37ce146100bf575b600080fd5b61007660048036038101906100719190610394565b6100dd565b005b6100806100f0565b60405161008e929190610475565b60405180910390f35b61009f61018d565b6040516100ac91906104a5565b60405180910390f35b6100bd610193565b005b6100c76101ac565b6040516100d491906104c0565b60405180910390f35b80600190816100ec91906106ee565b5050565b60006060600054600180805461010590610511565b80601f016020809104026020016040519081016040528092919081815260200182805461013190610511565b801561017e5780601f106101535761010080835404028352916020019161017e565b820191906000526020600020905b81548152906001019060200180831161016157829003601f168201915b50505050509050915091509091565b60005481565b6000808154809291906101a5906107ef565b9190505550565b600180546101b990610511565b80601f01602080910402602001604051908101604052809291908181526020018280546101e590610511565b80156102325780601f1061020757610100808354040283529160200191610232565b820191906000526020600020905b81548152906001019060200180831161021557829003601f168201915b505050505081565b6000604051905090565b600080fd5b600080fd5b600080fd5b600080fd5b6000601f19601f8301169050919050565b7f4e487b7100000000000000000000000000000000000000000000000000000000600052604160045260246000fd5b6102a182610258565b810181811067ffffffffffffffff821117156102c0576102bf610269565b5b80604052505050565b60006102d361023a565b90506102df8282610298565b919050565b600067ffffffffffffffff8211156102ff576102fe610269565b5b61030882610258565b9050602081019050919050565b82818337600083830152505050565b6000610337610332846102e4565b6102c9565b90508281526020810184848401111561035357610352610253565b5b61035e848285610315565b509392505050565b600082601f83011261037b5761037a61024e565b5b813561038b848260208601610324565b91505092915050565b6000602082840312156103aa576103a9610244565b5b600082013567ffffffffffffffff8111156103c8576103c7610249565b5b6103d484828501610366565b91505092915050565b6000819050919050565b6103f0816103dd565b82525050565b600081519050919050565b600082825260208201905092915050565b60005b83811015610430578082015181840152602081019050610415565b60008484015250505050565b6000610447826103f6565b6104518185610401565b9350610461818560208601610412565b61046a81610258565b840191505092915050565b600060408201905061048a60008301856103e7565b818103602083015261049c818461043c565b90509392505050565b60006020820190506104ba60008301846103e7565b92915050565b600060208201905081810360008301526104da818461043c565b905092915050565b7f4e487b7100000000000000000000000000000000000000000000000000000000600052602260045260246000fd5b6000600282049050600182168061052957607f821691505b60208210810361053c5761053b6104e2565b5b50919050565b60008190508160005260206000209050919050565b60006020601f8301049050919050565b600082821b905092915050565b6000600883026105a47fffffffffffffffffffffffffffffffffffffffffffffffffffffffffffffffff82610567565b6105ae8683610567565b95508019841693508086168417925050509392505050565b6000819050919050565b60006105eb6105e66105e1846103dd565b6105c6565b6103dd565b9050919050565b6000819050919050565b610605836105d0565b610619610611826105f2565b848454610574565b825550505050565b600090565b61062e610621565b6106398184846105fc565b505050565b5b8181101561065d57610652600082610626565b60018101905061063f565b5050565b601f8211156106a25761067381610542565b61067c84610557565b8101602085101561068b578190505b61069f61069785610557565b83018261063e565b50505b505050565b600082821c905092915050565b60006106c5600019846008026106a7565b1980831691505092915050565b60006106de83836106b4565b9150826002028217905092915050565b6106f7826103f6565b67ffffffffffffffff8111156107105761070f610269565b5b61071a8254610511565b610725828285610661565b600060209050601f8311600181146107585760008415610746578287015190505b61075085826106d2565b8655506107b8565b601f19841661076686610542565b60005b8281101561078e57848901518255600182019150602085019450602081019050610769565b868310156107ab57848901516107a7601f8916826106b4565b8355505b6001600288020188555050505b505050505050565b7f4e487b7100000000000000000000000000000000000000000000000000000000600052601160045260246000fd5b60006107fa826103dd565b91507fffffffffffffffffffffffffffffffffffffffffffffffffffffffffffffffff820361082c5761082b6107c0565b5b60018201905091905056fea264697066735822122076d881969a9f421799cea32b74be7cd57d5cc5c2b972476e9de6a57faa60354c64736f6c63430008140033",
  "linkReferences": {},
  "deployedLinkReferences": {}
}